{
  "_format": "hh-sol-artifact-1",
  "contractName": "Staking",
  "sourceName": "contracts/staking/Staking.sol",
  "abi": [
    {
      "anonymous": false,
      "inputs": [
        {
          "indexed": false,
          "internalType": "uint8",
          "name": "version",
          "type": "uint8"
        }
      ],
      "name": "Initialized",
      "type": "event"
    },
    {
      "anonymous": false,
      "inputs": [
        {
          "indexed": true,
          "internalType": "address",
          "name": "previousOwner",
          "type": "address"
        },
        {
          "indexed": true,
          "internalType": "address",
          "name": "newOwner",
          "type": "address"
        }
      ],
      "name": "OwnershipTransferred",
      "type": "event"
    },
    {
      "anonymous": false,
      "inputs": [
        {
          "indexed": true,
          "internalType": "address",
          "name": "who",
          "type": "address"
        },
        {
          "indexed": true,
          "internalType": "uint256",
          "name": "amount",
          "type": "uint256"
        },
        {
          "indexed": false,
          "internalType": "uint256",
          "name": "when",
          "type": "uint256"
        }
      ],
      "name": "StakedERC20",
      "type": "event"
    },
    {
      "anonymous": false,
      "inputs": [
        {
          "indexed": true,
          "internalType": "address",
          "name": "who",
          "type": "address"
        },
        {
          "indexed": true,
          "internalType": "address",
          "name": "token",
          "type": "address"
        },
        {
          "indexed": true,
          "internalType": "uint256",
          "name": "tokenId",
          "type": "uint256"
        },
        {
          "indexed": false,
          "internalType": "uint256",
          "name": "when",
          "type": "uint256"
        }
      ],
      "name": "StakedERC721",
      "type": "event"
    },
    {
      "anonymous": false,
      "inputs": [
        {
          "indexed": true,
          "internalType": "address",
          "name": "who",
          "type": "address"
        },
        {
          "indexed": true,
          "internalType": "uint256",
          "name": "amount",
          "type": "uint256"
        },
        {
          "indexed": false,
          "internalType": "uint256",
          "name": "when",
          "type": "uint256"
        }
      ],
      "name": "UnstakedERC20",
      "type": "event"
    },
    {
      "anonymous": false,
      "inputs": [
        {
          "indexed": true,
          "internalType": "address",
          "name": "who",
          "type": "address"
        },
        {
          "indexed": true,
          "internalType": "address",
          "name": "token",
          "type": "address"
        },
        {
          "indexed": true,
          "internalType": "uint256",
          "name": "tokenId",
          "type": "uint256"
        },
        {
          "indexed": false,
          "internalType": "uint256",
          "name": "when",
          "type": "uint256"
        }
      ],
      "name": "UnstakedERC721",
      "type": "event"
    },
    {
      "anonymous": false,
      "inputs": [
        {
          "indexed": true,
          "internalType": "address",
          "name": "who",
          "type": "address"
        },
        {
          "indexed": true,
          "internalType": "uint256",
          "name": "amount",
          "type": "uint256"
        },
        {
          "indexed": false,
          "internalType": "uint256",
          "name": "when",
          "type": "uint256"
        }
      ],
      "name": "WithdrawalERC20",
      "type": "event"
    },
    {
      "anonymous": false,
      "inputs": [
        {
          "indexed": true,
          "internalType": "address",
          "name": "who",
          "type": "address"
        },
        {
          "indexed": true,
          "internalType": "address",
          "name": "token",
          "type": "address"
        },
        {
          "indexed": true,
          "internalType": "uint256",
          "name": "tokenId",
          "type": "uint256"
        },
        {
          "indexed": false,
          "internalType": "uint256",
          "name": "when",
          "type": "uint256"
        }
      ],
      "name": "WithdrawalERC721",
      "type": "event"
    },
    {
      "inputs": [],
      "name": "acceptedToken",
      "outputs": [
        {
          "internalType": "contract IERC20",
          "name": "",
          "type": "address"
        }
      ],
      "stateMutability": "view",
      "type": "function"
    },
    {
      "inputs": [],
      "name": "cooldownPeriod",
      "outputs": [
        {
          "internalType": "uint256",
          "name": "",
          "type": "uint256"
        }
      ],
      "stateMutability": "view",
      "type": "function"
    },
    {
      "inputs": [
        {
          "internalType": "address",
          "name": "",
          "type": "address"
        },
        {
          "internalType": "contract IERC721",
          "name": "",
          "type": "address"
        },
        {
          "internalType": "uint256",
          "name": "",
          "type": "uint256"
        }
      ],
      "name": "erc721Stakings",
      "outputs": [
        {
          "internalType": "uint256",
          "name": "",
          "type": "uint256"
        }
      ],
      "stateMutability": "view",
      "type": "function"
    },
    {
      "inputs": [
        {
          "internalType": "address",
          "name": "_who",
          "type": "address"
        },
        {
          "internalType": "contract IERC721",
          "name": "_nft",
          "type": "address"
        }
      ],
      "name": "getERC721Stakings",
      "outputs": [
        {
          "internalType": "uint256[]",
          "name": "",
          "type": "uint256[]"
        }
      ],
      "stateMutability": "view",
      "type": "function"
    },
    {
      "inputs": [
        {
          "internalType": "address",
          "name": "_who",
          "type": "address"
        }
      ],
      "name": "getMultiplier",
      "outputs": [
        {
          "components": [
            {
              "internalType": "uint128",
              "name": "numerator",
              "type": "uint128"
            },
            {
              "internalType": "uint128",
              "name": "denominator",
              "type": "uint128"
            }
          ],
          "internalType": "struct Staking.Multiplier",
          "name": "",
          "type": "tuple"
        }
      ],
      "stateMutability": "view",
      "type": "function"
    },
    {
      "inputs": [
        {
          "internalType": "address",
          "name": "_who",
          "type": "address"
        },
        {
          "internalType": "contract IERC721",
          "name": "_nft",
          "type": "address"
        }
      ],
      "name": "getPendingERC721Withdrawals",
      "outputs": [
        {
          "components": [
            {
              "internalType": "uint256",
              "name": "tokenId",
              "type": "uint256"
            },
            {
              "internalType": "uint128",
              "name": "applicableAt",
              "type": "uint128"
            }
          ],
          "internalType": "struct Staking.PendingERC721Withdrawal[]",
          "name": "",
          "type": "tuple[]"
        }
      ],
      "stateMutability": "view",
      "type": "function"
    },
    {
      "inputs": [
        {
          "internalType": "address",
          "name": "_who",
          "type": "address"
        }
      ],
      "name": "getTotalPoints",
      "outputs": [
        {
          "internalType": "uint256",
          "name": "",
          "type": "uint256"
        }
      ],
      "stateMutability": "view",
      "type": "function"
    },
    {
      "inputs": [
        {
          "internalType": "contract IERC721",
          "name": "_sheriff",
          "type": "address"
        },
        {
          "internalType": "contract IERC721",
          "name": "_pioneer",
          "type": "address"
        },
        {
          "internalType": "contract IERC20",
          "name": "_acceptedToken",
          "type": "address"
        }
      ],
      "name": "initialize",
      "outputs": [],
      "stateMutability": "nonpayable",
      "type": "function"
    },
    {
      "inputs": [],
      "name": "maxNftStaking",
      "outputs": [
        {
          "internalType": "uint256",
          "name": "",
          "type": "uint256"
        }
      ],
      "stateMutability": "view",
      "type": "function"
    },
    {
      "inputs": [
        {
          "internalType": "uint256",
          "name": "",
          "type": "uint256"
        },
        {
          "internalType": "uint256",
          "name": "",
          "type": "uint256"
        }
      ],
      "name": "multiplierMatrix",
      "outputs": [
        {
          "internalType": "uint128",
          "name": "numerator",
          "type": "uint128"
        },
        {
          "internalType": "uint128",
          "name": "denominator",
          "type": "uint128"
        }
      ],
      "stateMutability": "view",
      "type": "function"
    },
    {
      "inputs": [
        {
          "internalType": "address",
          "name": "",
          "type": "address"
        },
        {
          "internalType": "address",
          "name": "",
          "type": "address"
        },
        {
          "internalType": "uint256",
          "name": "",
          "type": "uint256"
        },
        {
          "internalType": "bytes",
          "name": "",
          "type": "bytes"
        }
      ],
      "name": "onERC721Received",
      "outputs": [
        {
          "internalType": "bytes4",
          "name": "",
          "type": "bytes4"
        }
      ],
      "stateMutability": "pure",
      "type": "function"
    },
    {
      "inputs": [],
      "name": "owner",
      "outputs": [
        {
          "internalType": "address",
          "name": "",
          "type": "address"
        }
      ],
      "stateMutability": "view",
      "type": "function"
    },
    {
      "inputs": [
        {
          "internalType": "address",
          "name": "",
          "type": "address"
        }
      ],
      "name": "pendingERC20Whithdrawals",
      "outputs": [
        {
          "internalType": "uint256",
          "name": "amount",
          "type": "uint256"
        },
        {
          "internalType": "uint128",
          "name": "applicableAt",
          "type": "uint128"
        }
      ],
      "stateMutability": "view",
      "type": "function"
    },
    {
      "inputs": [
        {
          "internalType": "address",
          "name": "",
          "type": "address"
        },
        {
          "internalType": "contract IERC721",
          "name": "",
          "type": "address"
        },
        {
          "internalType": "uint256",
          "name": "",
          "type": "uint256"
        }
      ],
      "name": "pendingERC721Whithdrawals",
      "outputs": [
        {
          "internalType": "uint256",
          "name": "tokenId",
          "type": "uint256"
        },
        {
          "internalType": "uint128",
          "name": "applicableAt",
          "type": "uint128"
        }
      ],
      "stateMutability": "view",
      "type": "function"
    },
    {
      "inputs": [],
      "name": "pioneerNft",
      "outputs": [
        {
          "internalType": "contract IERC721",
          "name": "",
          "type": "address"
        }
      ],
      "stateMutability": "view",
      "type": "function"
    },
    {
      "inputs": [],
      "name": "renounceOwnership",
      "outputs": [],
      "stateMutability": "nonpayable",
      "type": "function"
    },
    {
      "inputs": [
        {
          "internalType": "contract IERC20",
          "name": "_acceptedToken",
          "type": "address"
        }
      ],
      "name": "setAcceptedToken",
      "outputs": [],
      "stateMutability": "nonpayable",
      "type": "function"
    },
    {
      "inputs": [
        {
          "internalType": "uint256",
          "name": "_cooldownPeriod",
          "type": "uint256"
        }
      ],
      "name": "setCooldownPeriod",
      "outputs": [],
      "stateMutability": "nonpayable",
      "type": "function"
    },
    {
      "inputs": [
        {
          "internalType": "uint256",
          "name": "_maxNftStaking",
          "type": "uint256"
        }
      ],
      "name": "setMaxNftStaking",
      "outputs": [],
      "stateMutability": "nonpayable",
      "type": "function"
    },
    {
      "inputs": [
        {
          "internalType": "uint128[]",
          "name": "numerator",
          "type": "uint128[]"
        },
        {
          "internalType": "uint128[]",
          "name": "denominator",
          "type": "uint128[]"
        }
      ],
      "name": "setMultiplier",
      "outputs": [],
      "stateMutability": "nonpayable",
      "type": "function"
    },
    {
      "inputs": [],
      "name": "sheriffNft",
      "outputs": [
        {
          "internalType": "contract IERC721",
          "name": "",
          "type": "address"
        }
      ],
      "stateMutability": "view",
      "type": "function"
    },
    {
      "inputs": [
        {
          "internalType": "uint256",
          "name": "_amount",
          "type": "uint256"
        }
      ],
      "name": "stakeERC20",
      "outputs": [],
      "stateMutability": "nonpayable",
      "type": "function"
    },
    {
      "inputs": [
        {
          "internalType": "contract IERC721",
          "name": "_nft",
          "type": "address"
        },
        {
          "internalType": "uint256",
          "name": "_tokenId",
          "type": "uint256"
        }
      ],
      "name": "stakeERC721",
      "outputs": [],
      "stateMutability": "nonpayable",
      "type": "function"
    },
    {
      "inputs": [
        {
          "internalType": "address",
          "name": "",
          "type": "address"
        }
      ],
      "name": "staking",
      "outputs": [
        {
          "internalType": "uint256",
          "name": "",
          "type": "uint256"
        }
      ],
      "stateMutability": "view",
      "type": "function"
    },
    {
      "inputs": [
        {
          "internalType": "address",
          "name": "newOwner",
          "type": "address"
        }
      ],
      "name": "transferOwnership",
      "outputs": [],
      "stateMutability": "nonpayable",
      "type": "function"
    },
    {
      "inputs": [
        {
          "internalType": "uint256",
          "name": "_amount",
          "type": "uint256"
        }
      ],
      "name": "unstakeERC20",
      "outputs": [],
      "stateMutability": "nonpayable",
      "type": "function"
    },
    {
      "inputs": [
        {
          "internalType": "contract IERC721",
          "name": "_nft",
          "type": "address"
        },
        {
          "internalType": "uint256",
          "name": "_tokenId",
          "type": "uint256"
        }
      ],
      "name": "unstakeERC721",
      "outputs": [],
      "stateMutability": "nonpayable",
      "type": "function"
    },
    {
      "inputs": [],
      "name": "withdrawERC20",
      "outputs": [],
      "stateMutability": "nonpayable",
      "type": "function"
    },
    {
      "inputs": [
        {
          "internalType": "contract IERC721",
          "name": "_nft",
          "type": "address"
        },
        {
          "internalType": "uint256",
          "name": "_tokenId",
          "type": "uint256"
        }
      ],
      "name": "withdrawERC721",
      "outputs": [],
      "stateMutability": "nonpayable",
      "type": "function"
    }
  ],
  "bytecode": "0x608060405234801561001057600080fd5b50612727806100206000396000f3fe608060405234801561001057600080fd5b506004361061018f5760003560e01c806380ea3de1116100e4578063cc7ef50911610092578063cc7ef509146103ef578063d764b78f14610402578063d80e129214610422578063ede76f9214610435578063f1916ab814610482578063f2fde38b14610495578063f3e414f8146104a8578063ffce1133146104bb57600080fd5b806380ea3de1146102df57806385e5c262146102f25780638da5cb5b14610351578063a7262aac14610362578063a9c9cddb14610382578063a9d637e1146103a2578063c0c53b8b146103dc57600080fd5b8063451c3d8011610141578063451c3d801461026f5780634c23648d14610282578063524b28f914610295578063715018a6146102a85780637487f528146102b0578063750b5e1d146102c35780637dfae334146102cc57600080fd5b806303abf0221461019457806304646a49146101ba578063075b52c6146101c35780631088ce90146101d8578063150b7a02146101eb5780632ed6d5e81461023c5780633881f1b614610244575b600080fd5b6101a76101a2366004612000565b6104ce565b6040519081526020015b60405180910390f35b6101a760975481565b6101d66101d1366004612041565b61050c565b005b6101a76101e636600461206d565b610730565b6102236101f9366004612091565b7f150b7a023d4804d13e8c85fb27262cb750cf6ba9f9dd3bb30d90f482ceeb4b1f95945050505050565b6040516001600160e01b031990911681526020016101b1565b6101d661078e565b609c54610257906001600160a01b031681565b6040516001600160a01b0390911681526020016101b1565b609854610257906001600160a01b031681565b6101d6610290366004612041565b610866565b6101d66102a33660046121f9565b610ab0565b6101d6610bef565b6101d66102be36600461206d565b610c01565b6101a7609d5481565b6101d66102da36600461225d565b610c2b565b6101d66102ed36600461225d565b610d7c565b610331610300366004612276565b609e6020908152600092835260408084209091529082529020546001600160801b0380821691600160801b90041682565b604080516001600160801b039384168152929091166020830152016101b1565b6033546001600160a01b0316610257565b610375610370366004612298565b610d89565b6040516101b191906122d1565b610395610390366004612298565b610e03565b6040516101b19190612315565b6103b56103b036600461206d565b610e9b565b6040805182516001600160801b0390811682526020938401511692810192909252016101b1565b6101d66103ea36600461236d565b610ffe565b6101d66103fd36600461225d565b61166d565b6101a761041036600461206d565b60996020526000908152604090205481565b6101d661043036600461225d565b611712565b61046561044336600461206d565b609a60205260009081526040902080546001909101546001600160801b031682565b604080519283526001600160801b039091166020830152016101b1565b610465610490366004612000565b61171f565b6101d66104a336600461206d565b611772565b6101d66104b6366004612041565b6117e8565b609b54610257906001600160a01b031681565b609f60205282600052604060002060205281600052604060002081815481106104f657600080fd5b9060005260206000200160009250925050505481565b610514611ae5565b609b546001600160a01b038381169116148061053d5750609c546001600160a01b038381169116145b6105625760405162461bcd60e51b8152600401610559906123b8565b60405180910390fd5b336000908152609f602090815260408083206001600160a01b03861684529091529020546105cb5760405162461bcd60e51b815260206004820152601660248201527514dd185ada5b99ce88139bc8139195081cdd185ad95960521b6044820152606401610559565b336000908152609f602090815260408083206001600160a01b03861684529091528120906105f98284611b3e565b825490915081036106465760405162461bcd60e51b815260206004820152601760248201527614dd185ada5b99ce88139195081b9bdd081cdd185ad959604a1b6044820152606401610559565b6106508282611b90565b33600090815260a0602090815260408083206001600160a01b03881684528252918290208251808401909352858352609754909283929091908201906106969042612405565b6001600160801b039081169091528254600180820185556000948552602094859020845160029093020191825592840151920180546001600160801b0319169290911691909117905560405142815285916001600160a01b0388169133917f9b2808c2ec20946484be77abd405156d10d1cd4562da47ca81030727a1335660910160405180910390a450505061072c6001606555565b5050565b6001600160a01b0381166000908152609960205260408120548161075384610e9b565b905080602001516001600160801b031681600001516001600160801b03168361077c9190612418565b6107869190612445565b949350505050565b610796611ae5565b336000908152609a6020526040902080546107c35760405162461bcd60e51b815260040161055990612459565b6001810154426001600160801b0390911611156107f25760405162461bcd60e51b8152600401610559906124a8565b8054600082556001820180546001600160801b0319169055609854610821906001600160a01b03163383611c0c565b604051428152819033907fb82679db786bc7cea52df97d5b9dc387dcdbe8f089884740eae34cce025289689060200160405180910390a350506108646001606555565b565b61086e611ae5565b609b546001600160a01b03838116911614806108975750609c546001600160a01b038381169116145b6108b35760405162461bcd60e51b8152600401610559906123b8565b6040516331a9108f60e11b81526004810182905233906001600160a01b03841690636352211e90602401602060405180830381865afa1580156108fa573d6000803e3d6000fd5b505050506040513d601f19601f8201168201806040525081019061091e91906124ee565b6001600160a01b0316146109705760405162461bcd60e51b815260206004820152601960248201527814dd185ada5b99ce88139bdd081bdddb995c881bd988139195603a1b6044820152606401610559565b336000908152609f602090815260408083206001600160a01b03861684529091529020609d548154106109e55760405162461bcd60e51b815260206004820181905260248201527f5374616b696e673a204d6178204e4654207374616b696e6720726561636865646044820152606401610559565b604051632142170760e11b81526001600160a01b038416906342842e0e90610a159033903090879060040161250b565b600060405180830381600087803b158015610a2f57600080fd5b505af1158015610a43573d6000803e3d6000fd5b5050825460018101845560008481526020902001849055505060405182906001600160a01b0385169033907f85f412ca9b21ff8d020280b7801d0a5a64907f4c89ef211d2317060fb81076a290610a9d9042815260200190565b60405180910390a45061072c6001606555565b610ab8611c74565b8051825114610ad95760405162461bcd60e51b81526004016105599061252f565b6000609d546001610aea9190612405565b9050610af68180612418565b835114610b155760405162461bcd60e51b81526004016105599061252f565b60005b8351811015610be9576040518060400160405280858381518110610b3e57610b3e61255f565b60200260200101516001600160801b03168152602001848381518110610b6657610b6661255f565b60200260200101516001600160801b0316815250609e60008484610b8a9190612445565b815260200190815260200160002060008484610ba69190612575565b8152602080820192909252604001600020825192909101516001600160801b03908116600160801b02921691909117905580610be181612589565b915050610b18565b50505050565b610bf7611c74565b6108646000611cce565b610c09611c74565b609880546001600160a01b0319166001600160a01b0392909216919091179055565b610c33611ae5565b60008111610c535760405162461bcd60e51b8152600401610559906125a2565b33600090815260996020526040902054811115610cbc5760405162461bcd60e51b815260206004820152602160248201527f5374616b696e673a204e6f7420656e6f756768207374616b656420616d6f756e6044820152601d60fa1b6064820152608401610559565b3360009081526099602052604081208054839290610cdb9084906125e8565b9091555050336000908152609a60205260408120805490918391839190610d03908490612405565b9091555050609754610d159042612405565b6001820180546001600160801b0319166001600160801b0392909216919091179055604051428152829033907f2d3c1b4f1ae0379749f6d9a4517c14c0a9797e168c129d9d215fa95390e0bd389060200160405180910390a350610d796001606555565b50565b610d84611c74565b609755565b6001600160a01b038083166000908152609f60209081526040808320938516835292815290829020805483518184028101840190945280845260609392830182828015610df557602002820191906000526020600020905b815481526020019060010190808311610de1575b505050505090505b92915050565b6001600160a01b03808316600090815260a0602090815260408083209385168352928152828220805484518184028101840190955280855260609493919290919084015b82821015610e8f5760008481526020908190206040805180820190915260028502909101805482526001908101546001600160801b0316828401529083529092019101610e47565b50505050905092915050565b604080518082018252600080825260208083018290526001600160a01b038581168352609f8252848320609c54909116835281528382208054855181840281018401909652808652939492939091830182828015610f1857602002820191906000526020600020905b815481526020019060010190808311610f04575b5050506001600160a01b038087166000908152609f60209081526040808320609b54909416835292815282822080548451818402810184019095528085529697509195929450909250830182828015610f9057602002820191906000526020600020905b815481526020019060010190808311610f7c575b505085516000908152609e602090815260408083208751845282528083208151808301909252546001600160801b038082168352600160801b909104169181018290529596509003925061078691505057505060408051808201909152600180825260208201529392505050565b600054610100900460ff161580801561101e5750600054600160ff909116105b806110385750303b158015611038575060005460ff166001145b61109b5760405162461bcd60e51b815260206004820152602e60248201527f496e697469616c697a61626c653a20636f6e747261637420697320616c72656160448201526d191e481a5b9a5d1a585b1a5e995960921b6064820152608401610559565b6000805460ff1916600117905580156110be576000805461ff0019166101001790555b6110c6611d20565b6110ce611d4f565b609b80546001600160a01b038087166001600160a01b031992831617909255609c8054868416908316179055609880549285169290911691909117905562278d006097556003609d8190556040805180820182526001808252602080830182815260008080527fedae58bba15aea52a58242ef195db2cc4de2b75de265dbb0d58482df22a95978808452945191516001600160801b03908116600160801b908102938216939093177f7d7a175df483167c80bba5e6d0c836f5771ce84be3e8557e91645693c148fea455865180880188526104e281526103e88186018181528785528887529151915183168502918316919091177f98ce384a1287733b51727408be14b14629222f2332e0048c94d118245c5982795587518089018952610672815280860182815260028086528988529151905184168602908416177ffea39fe51ba6d58abe2c1f6ae5866ea3cdba2cb47f82d8a2d17495908e412e08558851808a018a526108ca81528087018381528b865298875251975183168502978316979097177fd85fa7741a5e38cc155ba9d96efafd110f288f6c4046172f4e8a27916db2e3d9558751808901895261040181528086018281528480527f9f327656ac6adb1f47e9c0fa361c6ac2a34ea4898beba4721854970b7061b16d8088529151905184168602908416177ff92fdce9ef8d9c541808facc8f707bbd99709c79fa2b3b0eb7f85651fdf278f7558851808a018a5261051481528087018381528886528288529051905184168602908416177f0531584b6dbf949f27f4b7c0ebc3839354efabf5b9975dc522ef477c50777522558851808a018a5261069a81528087018381528986528288529051905184168602908416177fd34ec963d0bef948f111465abb7109f5bf655b7ac446c8e84ff12893f6bd73f8558851808a018a5261092e81528087018381528b865291875251905183168502908316177f562f29cd849e1c0543b9a80dfe319dfd25ce61a2b278416cdc3c8fab67e33fa4558751808901895261041a81528086018281528480527fc4886b5ff611eeec2a2cedbef891edcb89b8166c281260bad3c8900b769602098088529151905184168602908416177f4db622fbb5cb663a6a6d315440ec35d50985760a7dcc7df50fcffcff469e7364558851808a018a5261057881528087018381528886528288529051905184168602908416177f273e70835d4d522fc3bd057cbe59353d7fab5883833c4e163b3e5db375db3cb7558851808a018a526106d681528087018381528986528288529051905184168602908416177fe99bdda3241471781156b5269dd8ad0713f451d40b89cacc7d77952c25b08222558851808a018a526109c481528087018381528b865291875251905183168502908316177fd3db4b55eb9d85c83d51f46a183c73f78a8addf02bfc9e5b04458843e6f0ece4558751808901895261044c81528086018281528480527ff0819ec676ed334280900d7051e8a9c5f9668eaf8366830d9ff1e8e86848cf348088529151905184168602908416177fdb9e80a3e4cb140aa8e0944533b8cf8ece7a65ff9806883270deeedc0861fc2d558851808a018a526105dc815280870183815297855281875251965183168502968316969096177faf9705fdcc2e59e4ffab18d1363266c28f12864c13f73e1d54844d2af02201935587518089018952610721815280860182815297845286865251965182168402968216969096177fec8ebdfae5679a32ce877dca0b2f6c5b531cb634f3705e842911da33f754229b558651808801909752610abe87528684019586529690529190529151905183169091029116177f6686a5090d8179e75ec02ea3d8d2f50abb92d9197473ba51491e8bb5c39edb5c558015610be9576000805461ff0019169055604051600181527f7f26b83ff96e1f2b6a682f133852f6798a09c465da95921460cefb38474024989060200160405180910390a150505050565b611675611ae5565b600081116116955760405162461bcd60e51b8152600401610559906125a2565b6098546116ad906001600160a01b0316333084611d7e565b33600090815260996020526040812080548392906116cc908490612405565b9091555050604051428152819033907fe3195b580a0bdc31012b3e254b857d5ceb206202d4c9ed113cd8b982b62e36f59060200160405180910390a3610d796001606555565b61171a611c74565b609d55565b60a0602052826000526040600020602052816000526040600020818154811061174757600080fd5b6000918252602090912060029091020180546001909101549093506001600160801b03169150839050565b61177a611c74565b6001600160a01b0381166117df5760405162461bcd60e51b815260206004820152602660248201527f4f776e61626c653a206e6577206f776e657220697320746865207a65726f206160448201526564647265737360d01b6064820152608401610559565b610d7981611cce565b6117f0611ae5565b609b546001600160a01b03838116911614806118195750609c546001600160a01b038381169116145b6118355760405162461bcd60e51b8152600401610559906123b8565b33600090815260a0602090815260408083206001600160a01b0386168452909152902080546118765760405162461bcd60e51b815260040161055990612459565b805460005b82548110156118c857838382815481106118975761189761255f565b906000526020600020906002020160000154036118b6578091506118c8565b806118c081612589565b91505061187b565b50815481036119255760405162461bcd60e51b815260206004820152602360248201527f5374616b696e673a204e4654206e6f742070656e64696e6720776974686472616044820152621dd85b60ea1b6064820152608401610559565b428282815481106119385761193861255f565b60009182526020909120600160029092020101546001600160801b031611156119735760405162461bcd60e51b8152600401610559906124a8565b81548290611983906001906125e8565b815481106119935761199361255f565b90600052602060002090600202018282815481106119b3576119b361255f565b600091825260209091208254600290920201908155600191820154910180546001600160801b0319166001600160801b0390921691909117905581548290806119fe576119fe6125fb565b60008281526020812060026000199093019283020190815560010180546001600160801b03191690559055604051632142170760e11b81526001600160a01b038516906342842e0e90611a599030903390889060040161250b565b600060405180830381600087803b158015611a7357600080fd5b505af1158015611a87573d6000803e3d6000fd5b5050505082846001600160a01b0316336001600160a01b03167f6e00704bd932b4c7e1820fda45944eb9ed72ddb39f306f30286238c6c347d88a42604051611ad191815260200190565b60405180910390a4505061072c6001606555565b600260655403611b375760405162461bcd60e51b815260206004820152601f60248201527f5265656e7472616e637947756172643a207265656e7472616e742063616c6c006044820152606401610559565b6002606555565b6000805b8354811015611b875782848281548110611b5e57611b5e61255f565b906000526020600020015403611b75579050610dfd565b80611b7f81612589565b915050611b42565b50509054919050565b81548290611ba0906001906125e8565b81548110611bb057611bb061255f565b9060005260206000200154828281548110611bcd57611bcd61255f565b906000526020600020018190555081805480611beb57611beb6125fb565b600190038181906000526020600020016000905590555050565b6001606555565b6040516001600160a01b038316602482015260448101829052611c6f90849063a9059cbb60e01b906064015b60408051601f198184030181529190526020810180516001600160e01b03166001600160e01b031990931692909217909152611d9f565b505050565b6033546001600160a01b031633146108645760405162461bcd60e51b815260206004820181905260248201527f4f776e61626c653a2063616c6c6572206973206e6f7420746865206f776e65726044820152606401610559565b603380546001600160a01b038381166001600160a01b0319831681179093556040519116919082907f8be0079c531659141344cd1fd0a4f28419497f9722a3daafe3b4186f6b6457e090600090a35050565b600054610100900460ff16611d475760405162461bcd60e51b815260040161055990612611565b610864611e71565b600054610100900460ff16611d765760405162461bcd60e51b815260040161055990612611565b610864611ea1565b610be9846323b872dd60e01b858585604051602401611c389392919061250b565b6000611df4826040518060400160405280602081526020017f5361666545524332303a206c6f772d6c6576656c2063616c6c206661696c6564815250856001600160a01b0316611ec89092919063ffffffff16565b805190915015611c6f5780806020019051810190611e12919061265c565b611c6f5760405162461bcd60e51b815260206004820152602a60248201527f5361666545524332303a204552433230206f7065726174696f6e20646964206e6044820152691bdd081cdd58d8d9595960b21b6064820152608401610559565b600054610100900460ff16611e985760405162461bcd60e51b815260040161055990612611565b61086433611cce565b600054610100900460ff16611c055760405162461bcd60e51b815260040161055990612611565b6060610786848460008585600080866001600160a01b03168587604051611eef91906126a2565b60006040518083038185875af1925050503d8060008114611f2c576040519150601f19603f3d011682016040523d82523d6000602084013e611f31565b606091505b5091509150611f4287838387611f4d565b979650505050505050565b60608315611fbc578251600003611fb5576001600160a01b0385163b611fb55760405162461bcd60e51b815260206004820152601d60248201527f416464726573733a2063616c6c20746f206e6f6e2d636f6e74726163740000006044820152606401610559565b5081610786565b6107868383815115611fd15781518083602001fd5b8060405162461bcd60e51b815260040161055991906126be565b6001600160a01b0381168114610d7957600080fd5b60008060006060848603121561201557600080fd5b833561202081611feb565b9250602084013561203081611feb565b929592945050506040919091013590565b6000806040838503121561205457600080fd5b823561205f81611feb565b946020939093013593505050565b60006020828403121561207f57600080fd5b813561208a81611feb565b9392505050565b6000806000806000608086880312156120a957600080fd5b85356120b481611feb565b945060208601356120c481611feb565b935060408601359250606086013567ffffffffffffffff808211156120e857600080fd5b818801915088601f8301126120fc57600080fd5b81358181111561210b57600080fd5b89602082850101111561211d57600080fd5b9699959850939650602001949392505050565b634e487b7160e01b600052604160045260246000fd5b80356001600160801b038116811461215d57600080fd5b919050565b600082601f83011261217357600080fd5b8135602067ffffffffffffffff8083111561219057612190612130565b8260051b604051601f19603f830116810181811084821117156121b5576121b5612130565b6040529384528581018301938381019250878511156121d357600080fd5b83870191505b84821015611f42576121ea82612146565b835291830191908301906121d9565b6000806040838503121561220c57600080fd5b823567ffffffffffffffff8082111561222457600080fd5b61223086838701612162565b9350602085013591508082111561224657600080fd5b5061225385828601612162565b9150509250929050565b60006020828403121561226f57600080fd5b5035919050565b6000806040838503121561228957600080fd5b50508035926020909101359150565b600080604083850312156122ab57600080fd5b82356122b681611feb565b915060208301356122c681611feb565b809150509250929050565b6020808252825182820181905260009190848201906040850190845b81811015612309578351835292840192918401916001016122ed565b50909695505050505050565b602080825282518282018190526000919060409081850190868401855b82811015612360578151805185528601516001600160801b0316868501529284019290850190600101612332565b5091979650505050505050565b60008060006060848603121561238257600080fd5b833561238d81611feb565b9250602084013561239d81611feb565b915060408401356123ad81611feb565b809150509250925092565b6020808252601a908201527f5374616b696e673a204e4654206e6f7420737570706f72746564000000000000604082015260600190565b634e487b7160e01b600052601160045260246000fd5b80820180821115610dfd57610dfd6123ef565b8082028115828204841417610dfd57610dfd6123ef565b634e487b7160e01b600052601260045260246000fd5b6000826124545761245461242f565b500490565b6020808252602f908201527f5374616b696e673a204e6f2070656e64696e67207769746864726177616c206660408201526e6f722074686973206164647265737360881b606082015260800190565b60208082526026908201527f5374616b696e673a205769746864726177616c206e6f74206170706c696361626040820152651b19481e595d60d21b606082015260800190565b60006020828403121561250057600080fd5b815161208a81611feb565b6001600160a01b039384168152919092166020820152604081019190915260600190565b60208082526016908201527514dd185ada5b99ce88125b9d985b1a59081a5b9c1d5d60521b604082015260600190565b634e487b7160e01b600052603260045260246000fd5b6000826125845761258461242f565b500690565b60006001820161259b5761259b6123ef565b5060010190565b60208082526026908201527f5374616b696e673a20416d6f756e74206d75737420626520677265617465722060408201526507468616e20360d41b606082015260800190565b81810381811115610dfd57610dfd6123ef565b634e487b7160e01b600052603160045260246000fd5b6020808252602b908201527f496e697469616c697a61626c653a20636f6e7472616374206973206e6f74206960408201526a6e697469616c697a696e6760a81b606082015260800190565b60006020828403121561266e57600080fd5b8151801515811461208a57600080fd5b60005b83811015612699578181015183820152602001612681565b50506000910152565b600082516126b481846020870161267e565b9190910192915050565b60208152600082518060208401526126dd81604085016020870161267e565b601f01601f1916919091016040019291505056fea2646970667358221220e896ee172d8abf3f3025d73667ac02b390beaef4c77973f2299ca669e752b48f64736f6c63430008120033",
  "linkReferences": {},
  "deployedLinkReferences": {}
}